:060000000C9460000C945A
:1000060000000C9400000C9400000C9400000C946A
:1000160000000C9400000C9400000C9400000C945A
:1000260000000C9400000C9400000C9400000C944A
:1000360000000C9400000C9400000C9400000C943A
:1000460000000C9400000C9400000C9400000C942A
:1000560000000C9400000C9400000C9400000C941A
:1000660000000C9400000C9400000C9400000C940A
:1000760000000C9400000C9400000C9400000C94FA
:1000860000000C9400001027E80364000A00010039
:100096000010000110000100C0F9A4B0999282D8A6
:1000A60080988883C6A1868E7F0080C011000005D7
:1000B6009E0002001205B0000000F894EE27ECBB8B
:1000C600F1E0F5BFE5BFE0936C008DE0A2E0BB2751
:1000D600ED938A95E9F780E090E1A0E0B1E0ED9339
:1000E6000197E9F7E2EBF0E085919591009761F0D1
:1000F600A591B59105901590BF01F00105900D925F
:100106000197E1F7FB01F0CF8BBFEFEFEDBFE0E129
:10011600EEBFC0E0D5E00C9490002497E0E0E883C1
:10012600E983EFEFE8BBE7BBEBBBEFE0EABBE091AF
:100136000005E095E8BBA0E111D10EEF10E020E04C
:1001460030E02430E0E03E0774F40BBB59B3A52F32
:100156001CD0EA83FB83F801EE0FFF1F31968F0157
:100166002F5F3F4FEECFAA81BB811F9711F4C0D0FE
:100176000AC0EA81FB81309731F0E881EA93A0E07A
:10018600A9D0AA81C2D0D9CFFFCF1A931A2FE12FB7
:10019600F0E0EE37A0E0FA0711F4E0E059C0ED37E1
:1001A600A0E0FA0711F4E1E053C0EB37A0E0FA074C
:1001B60011F4E2E04DC0E737A0E0FA0711F4E3E0FE
:1001C60047C0EE3BA0E0FA0711F4E4E041C0ED3B86
:1001D600A0E0FA0711F4E5E03BC0EB3BA0E0FA072C
:1001E60011F4E6E035C0E73BA0E0FA0711F4E7E0DA
:1001F6002FC0EE3DA0E0FA0711F4E8E029C0ED3D7E
:10020600A0E0FA0711F4E9E023C0EB3DA0E0FA070D
:1002160011F4EAE01DC0E73DA0E0FA0711F4EBE0B7
:1002260017C0EE3EA0E0FA0711F4ECE011C0ED3E77
:10023600A0E0FA0711F4EDE00BC0EB3EA0E0FA07F0
:1002460011F4EEE005C0E73EA0E0FA0719F4EFE08E
:10025600E0931105E0911105F0E019910895FFE092
:10026600FA95F1F70895A4B3AF70A4BBA99AA8981C
:10027600F6DFAA9AF4DFA3B3AA98F1DFAA9AEFDF12
:10028600AA98A7FDF5CF0895A07FAB2BA5BBAA9A88
:10029600E6DFAA98E4DF0895AA93A998A4B3A76F06
:1002A600A4BBB5B3BF70A881EFDFA881A295ECDF30
:1002B600A99A0C94E101AA9AD2DFE3B3AA98CFDFF8
:1002C600E07F0895CCDFF7DFAE2FF5DFA998E29542
:1002D600EA2B0895AA93C7DFE881F0E0EE5EFA4FB5
:1002E600E081A981AE0FD8DF7980688022960895D3
:1002F600BADFA2E0D1DFB7DFACE0CEDFB4DFA1E04A
:10030600CBDFE0E06E2E7E2E0895AA93EF93FF9347
:10031600A8816894AA3019F0E894791430F06394AF
:10032600E0E0EA93A62DD6DF2EF073949CDFA89A20
:10033600A881B2DFFF91EF910C94E101AA27BB27B8
:100346001197F1F70895AA93A998A4B3A76FA4BB30
:10035600B5B3BF70A88198DFA99A30C0AA93AA98AE
:10036600A8989880E881E058E0931405E881E05465
:10037600E0931505E3DFA0E3E6DFE0DFA0E3E3DFDC
:10038600DDDFA0E3E0DFDADFA0E2DDDFD7DFA8E232
:1003960083DFD4DFA4E080DFD1DFA5E87DDFCEDF19
:1003A600A4B3AF70A4BBA99A8DDFE53011F0E0E0ED
:1003B60005C059DFA6E070DF9BDFE1E021960895D6
:00000001FF
