S00E000052435F4341522E737265634C
S113000045C0000060C000005EC000005CC000008D
S11300105AC0000058C0000061C100009FC1000028
S1130020E8C1000050C000004EC000004CC00000F9
S11300304AC0000048C0000046C0000044C00000A0
S113004042C0000040C000003EC000003CC00000B0
S11300503AC0000038C0000036C0000034C00000C0
S113006032C0000030C000002EC000002CC00000D0
S11300702AC0000028C00000FCC1000024C0000009
S113008022C0000020C000001EC0000011241FBEBA
S1130090CFEFD0E1DEBFCDBF11E0A0E0B1E0EEE8EC
S11300A0F6E000E00BBF02C007900D92A438B10740
S11300B0D9F721E0A4E8B1E001C01D92A838B20745
S11300C0E1F73CD2E2C29CCFCF93DF93EC0165E130
S11300D071E0C1D2892B31F56AE171E0CE01BBD266
S11300E0892B11F562E271E0CE01B5D2892BF1F4CE
S11300F067E271E0CE01AFD2892BD1F46DE271E0F9
S1130100CE01A9D2892BB1F466E371E0CE01A3D26A
S1130110892B91F461E471E0CE019DD2892B71F4B5
S113012080E00DC083E50BC086E409C08CE407C001
S113013082E505C082E403C084E301C086E3DF9165
S1130140CF910895CF93DF93EC016DE471E083D2F6
S1130150892B19F4CE01B8DF01C084E5DF91CF917A
S1130160089589B719BE089589B7806E89BF089527
S113017012B88FEF83B989B7806E89BF8AB78ABFF7
S113018078940895CF93C82F84E067D0C63429F4B7
S113019088B38C7F88BBC09A0CC0C23429F488B35E
S11301A08C7F88BBC19A05C0C33519F488B38C7F92
S11301B088BBCF910895CF93C82F87E04ED0C63423
S11301C029F488B3837F88BBC29A0CC0C23429F453
S11301D088B3837F88BBC39A05C0C33519F488B339
S11301E0837F88BBCF910895CF93C82F811101C01D
S11301F0CFEF6C2F86E4C6DF69E06C0F86E4DBDFAB
S1130200CF91089560E083E5BDDF60E083E5D3CF5F
S1130210089597B321E030E0A90102C0440F551FAF
S11302206A95E2F7492B02C0220F331F8A95E2F741
S1130230242B27BB83B7886483BF83B7806283BFC3
S113024083B7816083BF85B5886485BD85B58062C9
S113025085BD85B5816085BD0895843011F461BF85
S1130260089563BD0895109298008FEC80939900CF
S1130270EBE9F0E0808182608083EDE9F0E0808149
S113028086608083EAE9F0E08081806180838081F8
S1130290886080838081806880830895F894EBE986
S11302A0F0E0908195FFFDCF80939C0078940895B1
S11302B0EBE9F0E080818823ECF780919C000895BD
S11302C0CF93DF93EC018881882329F02196E6DF20
S11302D089918111FCCFDF91CF9108951F920F92E4
S11302E00FB60F9211240BB60F922F933F934F9397
S11302F05F936F937F938F939F93AF93BF93EF938A
S1130300FF932FDF80918401882359F060E083E517
S113031052DF62E886E436DF89E591E0D1DF8AE0E6
S1130320BDDF2FEF81EE94E0215080409040E1F753
S113033000C0000019DFFF91EF91BF91AF919F9131
S11303408F917F916F915F914F913F912F910F907A
S11303500BBE0F900FBE0F901F9018951F920F9217
S11303600FB60F9211240BB60F922F933F934F9316
S11303705F936F937F938F939F93AF93BF93EF9309
S1130380FF93EFDE809184018823B1F08091000116
S1130390882339F060E083E50EDF62E886E4F2DE6C
S11303A006C060E083E5EEDE6CE886E404DF80E608
S11303B091E086DF8AE072DF2FEF81EE94E0215036
S11303C080409040E1F700C00000CEDEFF91EF9145
S11303D0BF91AF919F918F917F916F915F914F9159
S11303E03F912F910F900BBE0F900FBE0F901F9057
S11303F018951F920F920FB60F9211240BB60F92FD
S11304002F933F934F935F936F937F938F939F9318
S1130410AF93BF93EF93FF93A4DE8091840188236D
S113042059F060E083E5AEDE6CE886E4C4DE88E67D
S113043091E046DF8AE032DF2FEF81EE94E0215035
S113044080409040E1F700C000008EDEFF91EF9104
S1130450BF91AF919F918F917F916F915F914F91D8
S11304603F912F910F900BBE0F900FBE0F901F90D6
S113047018951F920F920FB60F9211240BB60F927C
S11304802F933F934F935F936F937F938F939F9398
S1130490AF93BF93EF93FF93F8940ADF803479F41A
S11304A0E0918601F0918701EF5FFE4F1082109278
S11304B087011092860181E0809385012BC02091F1
S11304C0860130918701232BA9F420918601309174
S11304D087011216130674F4E1E0F1E020E030E045
S11304E011922F5F3F4F409186015091870124174D
S11304F03507B4F3E0918601F0918701EF5FFE4F79
S11305008083809186019091870101969093870161
S1130510809386017894FF91EF91BF91AF919F9161
S11305208F917F916F915F914F913F912F910F9098
S11305300BBE0F900FBE0F901F90189519DE93DE1F
S113054067E084E066DE0DDED0E011E081E091E05A
S1130550F9DDC82F843509F078C08091850188239E
S113056009F46EC01092850180918401912F81114C
S113057090E090938401811107C080E791E0A0DEB0
S11305808AE08CDEF1DD02C03DDEEBDD809184018A
S1130590811141C080918501882309F44AC01092D9
S11305A08501CC34E9F028F4C23461F1C63479F021
S11305B040C0C235F1F0C33509F03BC083E56EDEBF
S11305C060E083E5DFDD60E083E5F5DD32C086E4ED
S11305D065DE68EC86E4D6DD69ED86E4ECDD29C0F1
S11305E08CE45CDE60EA82E4CDDD60EA86E4E3DD8F
S11305F020C082E553DE60EA86E4C4DD60EA82E47A
S1130600DADD17C082E44ADE68EC82E4BBDD62ED29
S113061082E4D1DD0EC0D73809F0DF5F8D2FE4DD31
S113062080910001882319F01092000102C01093F8
S113063000018FE99FE00197F1F700C0000086CF29
S1130640809184018111E7CFF4CF809184018823C4
S113065009F4A0CFE0CFFB0151915523A9F0BF01CC
S1130660DC014D9145174111E1F759F4CD01019099
S1130670002049F04D9140154111C9F3FB0141118E
S1110680EFCF81E090E001970895F894FFCF4A
S113068E01524947485400000000000000000000D9
S113069E000000000073746F7000464F52574152B1
S11306AE44004C4546540052494748540042414385
S11306BE4B57415244004C4546545F5350454544B4
S11306CE0052494748545F535045454400544F47E0
S11306DE474C455F4155544F00214C45465421002B
S11306EE2146524F4E54210021524947485421006D
S11306FE4E4F57204953204155544F20445249568A
S107070E494E470005
S9030000FC
