S01E0000386269742074696D657220616E6420636F756E7465722E73726563DB
S113000045C0000053C0000051C000004FC00000B4
S11300104DC000004BC0000049C0000047C00000B4
S113002045C0000043C0000041C000003FC00000C4
S11300303DC000003BC0000039C0000037C00000D4
S113004036C0000033C0000031C000002FC00000E3
S11300502DC000002BC0000029C0000027C00000F4
S113006025C0000023C0000021C000001FC0000004
S11300701DC000001BC0000019C0000017C0000014
S113008015C0000013C0000011C0000011241FBEE1
S1130090CFEFD0E1DEBFCDBF21E0A0E0B1E001C0F1
S11300A01D92A430B207E1F739D043C0A9CF1F9203
S11300B00F920FB60F9211242F933F938F939F9318
S11300C0809102019091030101968032910529F0FB
S11300D0909303018093020118C0109203011092BF
S11300E00201809100019091010121E030E000972C
S11300F011F020E030E03093010120930001892BBE
S113010019F481E088BB01C018BA9F918F913F9187
S11301102F910F900FBE0F901F90189581E087BB11
S113012018BA83B7876083BF87B7816087BF789425
S1090130FFCFF894FFCF9D
S9030000FC
