:080000000C946B000C9400004D
:100008000C9400000C9400000C9400000C94000068
:100018000C9400000C9400000C9400000C94000058
:100028000C9400000C9400000C9400000C94000048
:100038000C9400000C9400000C949B000C9400009D
:100048000C9400000C9400000C9400000C94000028
:100058000C9400000C9400000C9400000C94000018
:100068000C9400000C9400000C9400000C94000008
:100078000C9400000C9400000C9400000C940000F8
:100088000C9400001027E80364000A000100001027
:10009800000110000100C0F9A4B0999282F8809084
:1000A800446973743A2564206D6D000001002D4E7B
:1000B800414E00494E46000080C00A0000059E00DF
:1000C80001001A05B40002001E05C0000000F894E3
:1000D800EE27ECBBF1E0F5BFE5BFE0936C008DE0E7
:1000E800A2E0BB27ED938A95E9F780E090E1A0E0D4
:1000F800B1E0ED930197E9F7E2ECF0E08591959195
:10010800009761F0A591B59105901590BF01F00198
:1001180005900D920197E1F7FB01F0CF8BBFEFEF50
:10012800EDBFE0E1EEBFC0E0D5E00C9407016A93B3
:100138007A93AA93BA93EA93FA93EFB7EA93AAE069
:10014800B5E035D4EF5FFF4F6F4F7F4F35D4E9915E
:10015800EFBFF991E991B991A991799169911895B0
:10016800EFEFEBBBEABBE0EFE8BBEFEFE7BBE2E0AA
:10017800E5BBE1E0E4BBEFEFE2BBE1BBE3B9E2B929
:10018800E0E0E0936500EFEFE09364000895BA9330
:10019800AA931A930A930A811B81D801E8EEF3E027
:1001A8004FD3C29AC39855D3E8EEF3E0E0D3DF010A
:1001B800E4E6F0E045D3C298C39A4BD3E4E6F0E016
:1001C800D6D3DF01EAE0F0E0CDD3E050FB4FE08189
:1001D800E095E3B9C09AC198C29AC39A3AD3EAE0C3
:1001E800F0E0C5D3A0E0B5E0AE0FBF1FEC91E095FD
:1001F800E3B9C098C19AC29AC39AA1E0B0E03ED5CB
:1002080019810881BEC06097ABDFE1E0E3BFECE68F
:10021800E5BDE0E0E4BDEBEBE3BDA0E1C6D2789438
:1002280044D08F017BD2A1E0B0E028D5E0E0EA938A
:10023800A0E066D2FE01FA93EA93E8EAF0E0FA93C6
:10024800EA93F80177D3D0D384E0EED12896DE0183
:100258008BD2A2E3B0E012D5083CE0E01E0724F4FC
:100268000E31E0E01E070CF405C0909AD80106D5BF
:10027800909801C0909A0F31E0E01E0724F00634F0
:10028800E0E01E070CF008C0EEEFE3BDEAEFE6D2AF
:10029800909AE6EFE3D205C0EBEBE3BDE5EFE09320
:1002A8006500D80174DFBCCFFFCF2497E0E0E0936E
:1002B8000A05E0930B05E0930C05E0930D05E1E0DA
:1002C800E7BFA89A85E38A95F1F7A898999902C09B
:1002D800CAD20CF001C0FACFD6D2E0930E05F09343
:1002E8000F056093100570931105999B02C0BBD24E
:1002F8000CF001C0FACFC7D2E0931205F0931305B2
:100308006093140570931505E0E0E7BFA0910E0512
:10031800B0910F058091100590911105E09112059B
:10032800F09113056091140570911505F2D2C7D3A9
:10033800ABE7B4E18EEA90E4EFD3DF01CB01E0E074
:10034800F0E060E070E436D4A7D244D3E0E0F0E017
:1003580060E272E473D450F4E0911605F091170549
:10036800609118057091190597D209C097D2E0934A
:100378001605F093170560931805709319058ED22A
:1003880067D324960895AFD29D015E8112960BD350
:100398003097E1F0D901149606D38F01309759F0C0
:1003A8000230E0E01E0760F0F80131978F01D901B3
:1003B8001496ED93FC93D901129672D2319750831B
:1003C800D901F1D2FF230AF06BD205C0D901EFEFB2
:1003D800FFEFED93FC938ED227960895BA93AA93D4
:1003E800269781D210E0AC85BD85E0E0F0E0ED9382
:1003F800FC93EA89FB893196EA8BFB8B3197E49170
:100408002E2FE03009F409C1E12FE03031F4253214
:1004180011F411E001C04AD2FFC0E130A1F4253245
:1004280011F444D2F8C012E040E000E02D3211F49B
:1004380001E0F2C02B3211F44BE2EEC0203211F48D
:1004480040E2EAC002C0E23039F450E013E0203361
:1004580011F40068E1C003C0E33009F0DDC02033C7
:1004680010F02A3308F007C0AAE05A9F502DE22F57
:10047800E0535E0FD1C0E22FE33639F41ED2E8898B
:10048800F989A481AA931FD2C6C0E33729F415D2EB
:1004980020D2BDD11E2F07C0E03749F40ED219D2A1
:1004A800C2D11E2F086002600F7730E038C0E436F2
:1004B80011F0E93611F4046002C0E53731F4ECE8D4
:1004C800F0E0EE83FF8315E00CC0E83511F4086016
:1004D80003C0E83709F09FC0E6E9F0E0EE83FF8348
:1004E80014E002FF15C0E9D1A889B9891496ED91E5
:1004F800FD91EA87FB87AB85AA2322F40FD2EA870E
:10050800FB874DE2403011F01F5F01C00B7F07C031
:10051800D4D1A889B989149646D2EA87FB8700FD09
:1005280010C0151770F407FF08C002FF04C00B7F46
:10053800242F115001C020E301C020E2B7D151504F
:10054800F0CF312F01FF16C0303099F003FF06C0FD
:10055800EE81FF812591EE83FF8305C0AE81BF81C7
:100568002D91AE83BF83A2D1503009F05150315044
:10057800EBCF48C020E3EE81FF8123D2E887F987DB
:10058800EE81FF813296EE83FF83E885F985AA859F
:10059800BB85AE17BF0750F02F5FA885B985EA85E0
:1005A800FB85EA1BFB0BEA87FB87EFCF2A3328F092
:1005B80003FF02C0295F01C0295D04FD19C0213372
:1005C80020F4A885B985119709F409C0531710F0CC
:1005D80000FF01C011C020E207FF0AC020E300614C
:1005E80002FF06C00B7F4A936ED1503009F051507C
:1005F8005DD1503009F051503150A885B985129716
:1006080008F0B8CF00FF07C0503029F05150E0E2A1
:10061800EA9359D1F9CF10E0ECCEAC85BD85ED91C8
:10062800FD9168D164960895FF92F82E26975BD1C4
:10063800FE0167D146855785042E052A19F4EFEF88
:10064800FFEF1FC0DE01189660D18D0148875987DA
:10065800E0E0EA87EB87DE011C9657D1ED91FD912A
:10066800FA93EA931A930A93E7ECF1E0FA93EA9380
:10067800DE011C96B3DE9F01A885B985E0E0EC9306
:10068800F90138D12C96FF900895FFE0FA95F1F71B
:100698000895AAB3AF70AABBD99AD898F6DFDA9AA8
:1006A800F4DFA9B3DA98F1DFDA9AEFDFDA98A7FD79
:1006B800F5CF0895A07FAB2BABBBDA9AE6DFDA98CB
:1006C800E4DF0895AA93D998AAB3A76FAABBBBB3CE
:1006D800BF70A881EFDFA881A295ECDFD99A0C94AE
:1006E8000904DA9AD2DFE9B3DA98CFDFE07F089518
:1006F800CCDFF7DFAE2FF5DFD998E295EA2B089526
:10070800AA93C7DFE881F0E0E25EFA4FE081A981B1
:10071800AE0FD8DF5980488022960895BADFA2E04C
:10072800D1DFB7DFACE0CEDFB4DFA1E0CBDFE0E0C4
:100738004E2E5E2E0895AA93EF93FF93A881689496
:10074800AA3019F0E894571430F04394E0E0EA93A3
:10075800A42DD6DF2EF053949CDFD89AA881B2DF5F
:10076800FF91EF910C940904BA93AA931A93A98163
:10077800BA81ED91A983BA831E2FE03019F0A12F19
:10078800DADFF5CF188123960895AA27BB2711979A
:10079800F1F70895AA93D998AAB3A76FAABBBBB3D8
:1007A800BF70A88187DFD99A30C0AA93DA98D89801
:1007B8007880E881E058E0932005E881E054E093F0
:1007C8002105E3DFA0E3E6DFE0DFA0E3E3DFDDDF31
:1007D800A0E3E0DFDADFA0E2DDDFD7DFA8E272DF47
:1007E800D4DFA4E06FDFD1DFA5E86CDFCEDFAAB3EA
:1007F800AF70AABBD99A7CDFE53011F0E0E005C004
:1008080048DFA6E05FDF8ADFE1E021960895BA932A
:10081800AA93A991B991EE27FF276D91662311F04C
:100828003196FBCF0895BA93AA93AA27BB27E991DB
:10083800F9910590002011F01196FBCFFD01089564
:1008480091D0E050FB4FE081E095E3B9C09AC19A9E
:100858000895A1E0B0E012D2D8010895E0936500B0
:10086800A8EEB3E00BC2A0910A05B0910B058091E8
:100878000C0590910D05A939E8E0BE07E0E08E0768
:10088800E0E09E070895E0910A05F0910B0560915C
:100898000C0570910D050895A2D0089596D008957D
:1008A800ED91FD913196FE93EE9308952A93AD85CF
:1008B800BE85EF85F88909950895E889F9893497FF
:1008C800E88BF98B0895AD85BE85EF85F889099584
:1008D8000895A889B9891496ED91FD91EE83FF8357
:1008E800AE81BF8108955A934A933A932A931A93F3
:1008F8000A9308955D814C813B812A811981088181
:1009080008950024EF0DF01D08950024AF0DB01DCB
:100918000895EA1BFB0B680B790B0895F195E19597
:10092800F0400895F09560957095E195FF4F6F4FF1
:100938007F4F08956F2F660F660B762F089500245A
:10094800112490E1AA0FBB1F001C111C0E1A1F0ACC
:1009580018F40E0E1F1E01C0A1609A9599F7FD01AB
:10096800D001089512D0EBDF0EF4D8DF0895E89493
:10097800B7FF04C0B195A195B0406894F7FDCEDFEC
:10098800DEDFFD010EF4CADF0895E894F7FF02C028
:10099800C5DF6894B7FF06C0B195A195B04000F8CF
:1009A800039400FA0895ED91FC9111970895ED9143
:1009B800FD916D917D9108957E936E93FE93EE93D4
:1009C80008950590F491E02D0895E881F9816A81F0
:1009D8007B810895A881B9818A819B810895E883E4
:1009E800F9836A837B8308957A936A93FA93EA93E7
:1009F8000895552342F4503811F4E0FF04C03196AD
:100A0800691F791F6BF050E8572711F45F9373C083
:100A18005F3F31F0660F000C57956795752F089565
:100A28005F9300200AF072C06BC050E8192E15229F
:100A3800880F991F9527550F879550E8072E05228F
:100A4800660F771F7527550F67950895689401C03D
:100A5800E8945F93F2DF703818F07F3F08F44BC0DA
:100A680056E1571BAAF4519558300EF4593030F01E
:100A7800EFEFFFEF6FEF7FE777F91AC0772755237E
:100A8800B9F0EE0FFF1F661F771F5A95D1F710C0F8
:100A98007727583028F0EF2FF62F672F5850F9CFC7
:100AA800552331F076956795F795E7955A95D1F7DF
:100AB80000200AF437DF5F910895689401C0E89434
:100AC800309760407040B1F0002426F0772312F48C
:100AD800009428DF172E7EE1112032F07A95EE0F70
:100AE800FF1F661F111CF9CFEF2FF62F612D5F93A3
:100AF8008ADF5F910895EE27FF27BF015F91089570
:100B0800EFEFFFEF6FE77FEF5F910895EFEFFFEFF4
:100B18006FE77FE75F9108955F9387DF703859F338
:100B2800903849F301240894791F23F424F3002012
:100B38003AF3ECCF0F921F932F933F934F931127C4
:100B480022279927689FA0018F9F302D410D591F9B
:100B58006B9F300D411D591F8E9F27D0BF9F25D0F9
:100B68006A9F23D0BE9F1DD0AF9F1BD0AE9F110D93
:100B7800291F391F491F591FE32FF42F652F522FA3
:100B88004F913F912F911F910F9066232AF0550F97
:100B9800EE1FFF1F661F02C073954BF22ADF5F919D
:100BA8000895100D211D391F02C0200D311D491F48
:100BB800591F08955F9339DF703821F411200AF422
:100BC8009FCFA4CF903809F496CF01240894970BAF
:100BD8001BF4D4F30020F3CF792F1F932F933F9367
:100BE8004F931124112722273327A90190E2AE172A
:100BF800BF078607410730F0AE1BBF0B860B410BC2
:100C0800089401C08894551F221F331F111CAA1F66
:100C1800BB1F881F441F9A9551F7F901612D4F9109
:100C28003F912F911F91662332F0550FEE1FFF1F42
:100C3800661F7A954BF2DDDE5F91089599239AF04D
:100C4800772342F0971748F029F4AE17BF078607B5
:100C580020F031F098948894089598940894089511
:100C68001894889408957723C2F7971798F3A9F7EB
:100C7800EA17FB07680788F399F3ECCF109639F069
:100C8800A89580EA9FE00197F1F71197C9F70895B1
:00000001FF
